:100000000C9434000C9451000C9451000C94380161
:100010000C9451000C9451000C9451000C94A900C4
:100020000C9451000C9451000C9451000C9451000C
:100030000C9451000C9451000C9451000C945100FC
:100040000C9451000C9451000C9453000C945100EA
:100050000C9451000C9451000C9451000C945100DC
:100060000C9451000C94510011241FBECFEFD8E026
:10007000DEBFCDBF11E0A0E0B1E0E6E6F5E002C0F2
:1000800005900D92A230B107D9F723E0A2E0B1E0CC
:1000900001C01D92A831B207E1F70E9401020C9441
:1000A000B1020C9400001F921FB61F9211242F93CF
:1000B0008F939F93EF93FF932091C6005D9A1092C8
:1000C000100110920F018091C00084FF29C080911F
:1000D000160390911703029720F0109201011092DD
:1000E00000011092170310921603209314018091BF
:1000F000140181110AC081E08093150381E090E032
:10010000909317038093160302C010921503FF917A
:10011000EF919F918F912F911F901FBE1F90189567
:1001200080911503882399F380911603909117030A
:10013000FC01EC5EFE4F2083813022E0920738F70D
:100140000196DECF2A9A8EBD0DB407FEFDCF2A9808
:1001500008951F920F920FB60F9211242F933F9381
:100160004F935F936F937F938F939F93AF93BF93BF
:10017000EF93FF93809111018F5F80931101809124
:100180001101813F10F01092110130E020E080E079
:1001900041E050E0F901E95FFE4F6081909111016B
:1001A000691738F4BA01022E01C0660F0A94EAF703
:1001B000862B2F5F3F4F2830310561F70E94A20048
:1001C000809100019091010180349F4148F4809119
:1001D000000190910101019690930101809300012B
:1001E000809104018F5F809304018091040187FF57
:1001F00014C010920401809105018823F9F08091C8
:10020000060181508093060180910601811105C08D
:1002100080910501809580930501FF91EF91BF9139
:10022000AF919F918F917F916F915F914F913F918E
:100230002F910F900FBE0F901F901895809106017F
:100240008F5F80930601809106018F3F31F7809187
:100250000501809580930501809103018F5F809354
:100260000301809103018830C0F210920301D5CFC1
:100270001F921FB61F9211241092B200109211010A
:100280001F901FBE1F901895E7E0F1E08FEF80836D
:10029000818382838383848385838683878388E0C5
:1002A000809302010895F8940E9444014B9B41C041
:1002B0008FEF809306014F9905C0809106018095CC
:1002C00080930701199905C080910601809580935C
:1002D0000801309905C0809106018095809309013D
:1002E000319905C080910601809580930A01329969
:1002F00005C080910601809580930B01339905C05C
:1003000080910601809580930C01349905C08091FD
:100310000601809580930D01359905C080910601F5
:10032000809580930E011092010110920001789443
:10033000089580910301811107C04F9B05C08091F2
:1003400003018F5F8093030180910301813039F4B1
:10035000199B05C0809103018F5F809303018091F9
:100360000301823039F4309B05C0809103018F5F17
:100370008093030180910301833039F4319B05C0E0
:10038000809103018F5F809303018091030184308A
:1003900039F4329B05C0809103018F5F8093030184
:1003A00080910301853039F4339B05C080910301AE
:1003B0008F5F8093030180910301863039F4349B71
:1003C00005C0809103018F5F809303018091030139
:1003D000873039F4359B05C0809103018F5F80938E
:1003E000030180910301883048F4E0910301F0E0BB
:1003F00080910601E95FFE4F808395CF1092030143
:1004000092CF0E944401559A84B18C6284B92D9A8E
:1004100080E58CBD81E08DBD80E00E94A2008091CE
:10042000680081608093680080916B008160809398
:100430006B0083E090E09093C5008093C4008091AE
:10044000C10080698093C1008091C2008860809360
:10045000C2007894529A5A988091B000826080933A
:10046000B0008091B10083608093B10080917000F2
:1004700082608093700083E18093B3008BB18869C0
:100480008BB988B18F6388B9299AC8E029B1022E47
:10049000000C330B20953095832F881F8827881FE9
:1004A00090E0199B8260309B8460319B8860329B16
:1004B0008061339B8062349B8064359B80684B9B5A
:1004C00091608A3F21E0920710F089EF91E0009758
:1004D00011F481E090E02091120130911301821714
:1004E000930721F090931301809312014C9B36C027
:1004F00090E080E0E0911201F0911301E80FF91F04
:10050000EC5EFE4F20812095FC01E95FFE4F2083C9
:1005100001968830910571F7C09302018091000126
:100520009091010180349F4111F40E944401109286
:10053000060180910F01909110019C012F5F3F4FA8
:100540003093100120930F01893E934008F49ECF11
:100550008BB11BB88BB188698BB998CF0E945301BE
:06056000E8CFF894FFCF84
:02056600401F34
:00000001FF
